:020000040800F2
:10000000B8060020890100088F0F0008BD0E000807
:100010008D0F00088F0200082F120008000000005A
:10002000000000000000000000000000930F000826
:100030009102000800000000910F0008950F0008D1
:10004000A3010008A3010008A3010008A301000800
:10005000A3010008A3010008A3010008A3010008F0
:10006000A3010008A3010008A3010008A3010008E0
:10007000A3010008A3010008A3010008A3010008D0
:10008000A3010008A3010008A3010008A3010008C0
:10009000A3010008A3010008A3010008A3010008B0
:1000A000A3010008A3010008A3010008A3010008A0
:1000B000A3010008A3010008A3010008A301000890
:1000C000A3010008A3010008A3010008A301000880
:1000D000A3010008A3010008A3010008A301000870
:1000E000A3010008A3010008A301000800F002F822
:1000F00000F03AF80AA090E8000C82448344AAF188
:100100000107DA4501D100F02FF8AFF2090EBAE885
:100110000F0013F0010F18BFFB1A43F0010318473B
:10012000FC1900001C1A0000103A24BF78C878C1DE
:10013000FAD8520724BF30C830C144BF04680C60ED
:10014000704700000023002400250026103A28BF35
:1001500078C1FBD8520728BF30C148BF0B60704739
:100160001FB51FBD10B510BD00F058F81146FFF7C0
:10017000F7FF01F06DF800F076F803B4FFF7F2FF37
:1001800003BC00F07DF8000009488047094800479B
:10019000FEE7FEE7FEE7FEE7FEE7FEE7FEE7FEE737
:1001A000FEE7FEE704480549054A064B7047000094
:1001B000F70F0008ED000008B8000020B806002086
:1001C000B8020020B80200204FF0000200B513462C
:1001D00094469646203922BFA0E80C50A0E80C5067
:1001E000B1F12001BFF4F7AF090728BFA0E80C5018
:1001F00048BF0CC05DF804EB890028BF40F8042B11
:1002000008BF704748BF20F8022B11F0804F18BF7D
:1002100000F8012B7047704770477047754600F033
:100220002BF8AE4605006946534620F00700854688
:1002300018B020B5FFF7B6FFBDE820404FF000062C
:100240004FF000074FF000084FF0000B21F00701BE
:10025000AC46ACE8C009ACE8C009ACE8C009ACE801
:10026000C0098D46704710B50446AFF300802046A4
:10027000BDE81040FFF781BF0048704758000020DC
:1002800001491820ABBEFEE7260002007047FEE7DA
:100290007047000070B5044600F0FEF80546601C8B
:1002A00002D004480078044400F0F6F8401BA04255
:1002B000FAD370BD000000202DE9F84FDFF8B891A7
:1002C000002409F1040A0AF1040B23460F270BF15D
:1002D000040EC9E00125A5402A40AA427DD1674EFF
:1002E000D1F804C0ACEB0608B44532D014DCBCF144
:1002F000030F3AD009DCBCF1000F2AD0BCF1010F8A
:100300001CD0BCF1020F31D11DE0BCF1110F17D090
:10031000BCF1120F2AD119E0B8F5881F19D006DCFC
:10032000B8F5803F15D0B8F5801F1FD111E0B8F5A2
:10033000001F0ED0B8F5041F18D10AE0CB6815E0F5
:10034000CB681B1D12E0CB6808330FE0CB680C3381
:100350000CE08B682BB1012B4FF0080303D04561F3
:1003600004E0042302E0056100E00023FF2A01D835
:10037000064601E000F104064FEA840501D9A5F123
:100380002005D6F8008007FA05FC28EA0C0803FAD5
:1003900005F548EA0508C6F800804D68ED0062D50D
:1003A000374DAE6946F00106AE61AD6924F0030633
:1003B00005F001050095334D06EB050CDCF80850FF
:1003C000A607360F07FA06F825EA0805DFF8B88011
:1003D000404503D14FF0000817E044E0DFF8AC805F
:1003E000404502D14FF001080FE0DFF8A4804045FE
:1003F00002D14FF0020808E0DFF89880404502D1B2
:100400004FF0030801E04FF0040808FA06F848EA44
:100410000508CCF808804D68D9F80060ED034D461A
:1004200001D5164300E096432E604D68DAF800606F
:10043000AD03554601D5164300E096432E604D6846
:10044000DBF80060ED025D4601D5164300E09643FF
:100450002E604D68DEF80060AD02754601D516438A
:1004600000E096432E60641C0D682A46E5407FF448
:1004700031AFBDE8F88F000000040140000011100A
:10048000001002400000014000080140000C014043
:1004900000100140001401400148806870470000CE
:1004A0000000002002488168027811448160704792
:1004B00000000020074810B5016841F010010160FC
:1004C000032000F067F80F2000F006F800F024F891
:1004D000002010BD0020024070B50D4D04464FF4C1
:1004E0007A712878B1FBF0F00A490968B1FBF0F0A5
:1004F00000F0BEFA48B9102C07D200222146501E47
:1005000000F028F800206C6070BD012070BD000074
:10051000000000200C0000200C4808B5816941F063
:1005200001018161816901F001010091C16941F01E
:100530008051C161C06900F080500090044841685A
:1005400021F0E06141F00071416008BD00100240FF
:1005500000000140F0B40E4B1B680C46C3F30223AD
:10056000C3F10705042D00D90425191D072901D25F
:10057000002300E0DB1E012606FA05F1491E21409A
:1005800099409E40761E16403143F0BC00F050BEAC
:100590000CED00E0064900F0070208684FF6FF0383
:1005A000184040EA0220034A1043086070470000E8
:1005B0000CED00E00000FA052DE9F0470F460500BC
:1005C00061D0434E306800F00700B84209D230686D
:1005D00020F0070038433060306800F00700B84270
:1005E00051D128683B4C810712D5400703D560687C
:1005F00040F4E06060602878000703D5606840F44C
:10060000605060606068A96820F0F0000843606096
:100610002878C00728D06868012810D021680228EF
:1006200010D0890700292EDA616821F00301014307
:100630006160FFF731FF804641F288390DE02168A3
:100640008903EFE78901EDE7FFF726FFA0EB08013B
:10065000494502D90320BDE8F0876068696800F069
:100660000C00B0EB810FEFD1306800F00700B8420A
:100670000BD9306820F0070038433060306800F054
:100680000700B84201D00120E5E72878400705D5EA
:100690006068E96820F4E06008436060287800073B
:1006A00006D56068296920F4605040EAC1006060A6
:1006B00000F018F86168084AC1F30311515CC840A2
:1006C0000649086006480068FFF706FF0020C2E7F9
:1006D00000200240001002400C1B00080C0000200B
:1006E0000400002012A185B00FC98DE80F0014A0EE
:1006F000144A006804905168134801F00C03042B5D
:1007000010D0082B0ED1C1F38343C9031DF8030099
:100710000AD5516804AAC1F34041515C0A4A5043CA
:10072000B0FBF1F005B0704708494843FAE7000014
:1007300002030405060708090A0B0C0D0E0F101022
:10074000010200000010024000127A0000093D0082
:100750002DE9F84F040070D02078C04DC00749D073
:100760006868C0F38100012807D06868C0F3810081
:10077000022809D16868C00306D52868800339D5E6
:1007800060680028E7D035E06068B0F5803F0BD0A6
:1007900010B1B0F5A02F11D0286820F48030286067
:1007A000286820F4802002E0286840F48030286027
:1007B000606890B1FFF770FE06460AE0286840F4D2
:1007C00080202860F0E700BFFFF766FE801B6428EA
:1007D00073D828688003F7D50CE0FFF75DFE064666
:1007E00005E000BFFFF758FE801B6428F0D828689A
:1007F0008003F7D420789A4E80074FF001094FF01C
:10080000000839D5686810F00C0F07D06868C0F38D
:100810008100022809D16868C00306D428688007CF
:1008200014D52069012808D110E02069B0B1C6F8BC
:100830000090FFF731FE074605E00AE1FFF72CFEC6
:10084000C01B0228C4D828688007F7D528686169CA
:1008500020F0F80040EAC10028600DE0C6F80080F2
:10086000FFF71AFE074604E0FFF716FEC01B02283A
:1008700023D828688007F7D4207800072CD579483A
:10088000A169D9B1C0F80090FFF706FE074604E061
:10089000FFF702FEC01B02280FD8686A8007F7D551
:1008A00071484FF4FA510068B0FBF1F0009000BFBE
:1008B0000098411E0091FAD20EE080E0C0F800805E
:1008C000FFF7EAFD074604E0FFF7E6FDC01B02283C
:1008D00075D8686A8007F7D42078400760D5E86942
:1008E0000027C00008D4E86940F08050E861E8695A
:1008F000012700F0805000905C480168C90513D4BE
:100900000168834641F480710160FFF7C5FD8246AE
:1009100006E000BFFFF7C0FDA0EB0A0064284ED838
:10092000DBF80000C005F5D5E06801280AD008B161
:10093000052813D0286A20F001002862286A20F0D8
:10094000040002E0286A40F001002862E06841F2F9
:10095000883B98B1FFF7A0FD82460BE0286A40F083
:1009600004002862EEE700BFFFF796FDA0EB0A0146
:1009700059455AD8286A8007F6D50CE0FFF78CFD58
:10098000824605E0FFF788FDA0EB0A0159454CD8E7
:10099000286A8007F6D41FB1E86920F08050E8612A
:1009A000E06988B36968C1F38101022944D0022853
:1009B000C6F8608004D0FFF76FFD044638E034E0ED
:1009C000FFF76AFD074604E0FFF766FDC01B02283B
:1009D0002BD828688001F7D4206AB0F5803F05D174
:1009E0006868A16820F4003008436860D4E9080111
:1009F0000843696821F4741108436860C6F8609080
:100A0000FFF74AFD044606E025E000BFFFF744FD7E
:100A1000001B022809D828688001F7D51BE000BF19
:100A2000FFF73AFD001B022802D90320BDE8F88F2A
:100A300028688001F4D40EE00128F7D06868226AA3
:100A400000F48031914204D1616A00F47010884250
:100A500001D00120EAE70020E8E700000010024092
:100A600000004242800442420C000020007000401E
:100A700010B5401EB0F1807F01D3012010BD4FF0B2
:100A8000E02460610F21601700F0D2FB0020A0611C
:100A900007202061002010BD10B590F83C20012AED
:100AA00022D0012280F83C20CA688C6822F440726F
:100AB00022434C6822F4806222430C6822F40062D4
:100AC00022430C6922F4805222434C6922F40052E2
:100AD0002243C969002322F480420A4301684A6420
:100AE00080F83C30002010BD022010BD70B590F899
:100AF0003C20012A26D0012480F83C40022280F8C4
:100B00003D2003685A689D6822F070060A683243E7
:100B10005A600D4B02689A4208D0B2F1804F05D05E
:100B20000A4B9A4202D00A4B9A4204D1496825F0F6
:100B300080031943916080F83D40002180F83C100B
:100B4000084670BD022070BD002C0140000400402A
:100B50000008004010B5040003D094F83D0010B127
:100B600007E0012010BD002084F83C00204600F082
:100B70001FF8022084F83D00211D206800F03CFA97
:100B8000012084F8460084F83E0084F83F0084F891
:100B9000400084F8410084F8420084F8430084F85F
:100BA000440084F8450084F83D00002010BD00009A
:100BB00008B500680649884208D10648816941F4B1
:100BC00000618161806900F40060009008BD000050
:100BD000002C01400010024070B5044690F83C0023
:100BE000012817D0012584F83C50022084F83D00EC
:100BF0002068826822F0770222F47F4282600868CF
:100C0000502830D00DDC20284DD005DC98B31028BA
:100C10003BD148E0022070BD302844D0402834D178
:100C200039E0602828D0702806D0B0F5805F2CD03D
:100C3000B0F5005F29D10AE0CB68D1E90121206835
:100C400000F01DFA2068816841F0770109E0CB6867
:100C5000D1E90121206800F012FA2068816841F48E
:100C60008041816011E0CA684968206800F0BCFAE0
:100C70005021206807E016E0CA684968206800F043
:100C8000C4FA6021206800F004FA84F83D50002086
:100C900084F83C0070BDCA684968206800F0A4FA76
:100CA00040212068EFE7226801461046EBE700008C
:100CB00000B585B000210091019102910391006877
:100CC0000B49884212D10B48816941F004018161CE
:100CD0008069694600F0040004904FF48070009031
:100CE0000220019003900448FFF7E6FA05B000BD2A
:100CF000002C0140001002400008014070B504467D
:100D000090F83C000D4601280AD0012084F83C00F0
:100D100042B1042A18D0082A2AD00C2A4DD139E031
:100D2000022070BD206800F0BDF92068816941F0A3
:100D3000080181612068816921F0040181612068D6
:100D400081692A69114311E0206800F0D3F9206815
:100D5000816941F4006181612068816921F48061C9
:100D60008161206881692A6941EA0221816124E068
:100D7000206800F0EBF92068C16941F00801C16109
:100D80002068C16921F00401C1612068C1692A6934
:100D9000114311E0206800F005FA2068C16941F4B0
:100DA0000061C1612068C16921F48061C16120686E
:100DB000C1692A6941EA0221C161002084F83C002E
:100DC00070BD10B5040003D094F83D0010B107E0E9
:100DD000012010BD002084F83C00204600F01EF8E1
:100DE000022084F83D00211D206800F005F9012053
:100DF00084F8460084F83E0084F83F0084F8400000
:100E000084F8410084F8420084F8430084F84400E8
:100E100084F8450084F83D00002010BD70470000B4
:100E200010B50446022249B104290ED0082913D076
:100E300094F84100012816D0012010BD94F83E001E
:100E40000128F9D184F83E200FE094F83F000128F2
:100E5000F2D184F83F2008E094F840000128EBD15B
:100E600084F8402001E084F841200122206800F04D
:100E7000F9F80F492068884203D1426C42F40042DD
:100E800042642068884208D0B0F1804F05D00949FB
:100E9000884202D00849884204D1816801F00701E4
:100EA000062903D0016841F001010160002010BD56
:100EB000002C01400004004000080040FEE7000054
:100EC00010B596B000240F941094119412941394BA
:100ED0001C2108A81494FFF777F920216846FFF732
:100EE00073F929482749016040F29F51C0E9011474
:100EF00040F2E731C0E9031444618461FFF72AFE40
:100F000008B172B6FEE74FF480500F900FA91E484B
:100F1000FFF762FE08B172B6FEE71B48FFF751FF0C
:100F200008B172B6FEE7139413A917481494FFF79B
:100F3000DDFD08B172B6FEE76020CDE908040A9431
:100F40000B940C940D94002208A90F480E94FFF7FF
:100F5000D5FE08B172B6FEE700944FF40050CDE91B
:100F60000440029401940394694607480794FFF7EC
:100F700093FD08B172B6FEE70348FFF799FE16B07D
:100F800010BD0000002C014010000020FEE7FEE72D
:100F900070477047FFF786BA30B58FB02821684692
:100FA000FFF712F914210AA8FFF70EF9012108042E
:100FB000CDE900100024029402250491CDE90750E8
:100FC0004FF4E01009906846FFF7C2FB08B172B613
:100FD000FEE70F20CDE90A054FF48060CDE90C4013
:100FE00002210AA80E94FFF7E7FA002801D072B692
:100FF000FEE70FB030BD7047F0B50268164B174CD6
:10100000174D4FF08047984205D0B84203D0A04218
:1010100001D0A84203D122F070064A6832439842B8
:1010200005D0B84203D0A04201D0A84203D122F497
:101030004074CA6822434C6922F080022243026055
:101040008A68C2620A688262984201D109690163B2
:1010500001214161F0BD0000002C0140000400406E
:101060000008004010B501F01F030121046A9940F7
:101070008C430462016A9A401143016210BD10B5AD
:10108000846842EA032224F47F440A4322438260B4
:1010900010BD826822F070020A4342F007018160AD
:1010A0007047000030B5026A22F001020262026A53
:1010B0004368846924F073050C682C4322F0020510
:1010C0008A682A430A4DA8420BD122F00805CA6853
:1010D00023F440732A434D6922F004021D438B69B7
:1010E0002B434360846149684163026230BD000064
:1010F000002C014030B5026A22F010020262026A3E
:10110000436884690D6824F4E64444EA05248D6844
:1011100022F0200242EA05120B4DA8420ED1CD6802
:1011200022F0800242EA05124D6923F4406343EA4B
:1011300085038D6922F0400243EA850343608461A0
:1011400049688163026230BD002C014030B5026AFB
:1011500022F480720262036A4268C46923F4007355
:1011600024F073050C682C438D6843EA05230C4D6D
:10117000A8420ED1CD6823F4006343EA05234D69EC
:1011800022F4405242EA05128D6923F4806342EA58
:1011900005124260C4614968C163036230BD00004A
:1011A000002C014030B5026A22F480520262046AC7
:1011B0004268C3690D6823F4E64343EA05238D685A
:1011C00024F4005444EA0534064DA84204D14D6984
:1011D00022F4804242EA85124260C3614968016498
:1011E000046230BD002C014010B5036A046A24F08B
:1011F00001040462846924F0F00444EA021423F038
:101200000A020A438461026210BD10B5036A23F02A
:10121000100303628369046A23F4704343EA0232D1
:1012200024F0A00343EA01118261016210BDFEE7D0
:101230000907090E002804DB00F1E02080F8001403
:10124000704700F00F0000F1E02080F8141D704797
:1012500008B5FFF72FF9FFF79FFE2A48816941F093
:1012600020018161816901F020010091816941F0D3
:1012700004018161806900F004000090FFF720FE06
:1012800000212148FFF7CCFD204CDFF88480214E5F
:10129000DFF88490DFF884A0DFF884B019202060A4
:1012A0004FF47A752846FEF7F5FF4B20206028465C
:1012B000FEF7F0FF7D2020602846FEF7EBFF194F78
:1012C0004FF07C554146284600F072FA314600F056
:1012D00051FB494600F04EFB314600F069FA00F040
:1012E00029FB20606420FEF7D5FF284600F034FA81
:1012F00052465B4600F04AF800F016F80546B84240
:10130000E0DDCBE70010024010000020342C01404B
:101310000000A0410000C84200007A449A999999BF
:101320009999A93F0000204021F00042A2F16052AB
:10133000B2F5801F01F0004328BFD2F17F6C0BD9BA
:101340005FEA001C43EAC20242EB507018BF7047CC
:1013500028BF20F001007047B2F5801FBCBF1846BF
:1013600070474FEA410C1CF5001F02D2084600F0FE
:10137000C8BB70B500F0B2F800000089FFF7F6BFF7
:101380004FF00040A0F580007047000010B591EAD2
:10139000030F48BF83F0004300F1FC80841A71EB17
:1013A000030C05D2121943EB0C03001B61EB0C017B
:1013B000DFF824E14FEA1154A4EB135C1EEA430F5B
:1013C00018BF9EEA445F73D023EA0E03DCF1200EBF
:1013D00021EA045143F4801332D322FA0CFE10EBBD
:1013E0000E0023FA0CFE41EB0E01CCF1200E03FAA5
:1013F0000EFE10EB0E0051F10001B1F5801FCCF193
:10140000200E32D201EB045112FA0EF2BDE8104068
:1014100058BF7047401C38BF5FEA420218BF704790
:10142000002814BF20F0010041F100014FEA410300
:1014300013F5001F38BF7047A1F1C04100F09CB800
:10144000012A43EB0302ACF1200CDCF11F0E32BF8A
:101450004FF0000E23FA0CF310EB030041EB0451A4
:10146000B4EB115FD0D0A1EB045101F58011490814
:101470005FEA300001EB04510ED350F1000038BF99
:1014800012FA0EFE08D1BDE81040C9E7401C38BF73
:101490005FEA4202CAD1C3E7BDE810404FEA410308
:1014A00013F5001F38BF7047A1F1C04100F064B8C8
:1014B0009EEA445F08D011EA5E0FBDE8104004BF09
:1014C00001F0004100207047BDE8104070B500F009
:1014D00005F800BF64FBBE3E0000E0FF0EF1020E07
:1014E0002EF0030E5EF8046B364205D4012A43EB5E
:1014F000030515F5001F12D8012841EB010C1CF55E
:10150000001F0CD80ED14FEAD17C15F5001F0CEB53
:101510004C0C0CF1020C08BF4CEBD37C04E04FF0F8
:10152000080C01E04FEAD37C0CEB4C0526FA05F6DB
:1015300006F00706B6F1040C06D20EEB860CBDE8E9
:1015400070404CF0010C6047DFE80CF0090B020220
:101550004FF000414FF00000A1F5002170BD194689
:101560001046012851EB010418BFD4F5001484BFC4
:10157000002001F0004170BD0808A0F500114FEAFD
:101580003101704710B591EA030F48BF83F0004363
:101590003FF504AF841A71EB030C07D212198CF0DB
:1015A000004C43EB0C03001B61EB0C01DFF8A4E1E2
:1015B0004FEA1154A4EB135C1EEA430F18BF9EEAD6
:1015C000445F00F0B08023EA6E03524221EA0451E6
:1015D000C3EB6E0338BF5B1EDCF1200E25D322FA6D
:1015E0000CFE10EB0E0043FA0CFE41EB0E01CCF1A9
:1015F000200E03FA0EFE10EB0E0051F10001CCF1AB
:10160000200E29D412FA0EF201EB0451BDE810406D
:1016100058BF7047401C1CBFB2F1004F70470028F4
:101620000CBF491C20F00100704712EB020E43EB87
:10163000030218BF4FF0010E4EEA4202ACF1200C3B
:10164000DCF11E0E54D943FA0CFE10EB0E0051F1E2
:10165000FF31CCF11E0ED5D50EF1010E12FA0EFEA1
:10166000404141EB010101EB445C5FEA5C5C10D955
:1016700010EBDE7001EB045138BFBEF1004FBDE846
:10168000104018BF704700280CBF491C20F0010013
:10169000704730D24FEAD42C11F5001124F40064C5
:1016A0001BD0B1FA81F20B3AA41AA41ED2F1200386
:1016B000914030FA03F31943904001EBCC71002CB8
:1016C00001EB0451BDE81040A8BF704701F1C041D3
:1016D0004FF0000001F000417047B0FA80F310FABB
:1016E00003F100D110BDE41A173C4805C90AE4E72C
:1016F00001EB045110BD491001EB0451BDE810404D
:101700004FEA300002E04FF0000170474A0008BF86
:101710000042F8D0B2F5001F28BF704701F0004129
:101720004FF0000070479EEA445F07D011EA5E0F59
:10173000BDE8104004BF002100207047BDE8104004
:1017400070B5FFF7CBFE00BF40DFF63E83F00041EF
:10175000104670470000E0FF43004FEAD30C4FEA09
:101760003C0C43401FBF40070CF1605113F0FE4F8B
:1017700070471CF0006F03D100200CF0004170474F
:101780000CF0004343EA507010B540EACC0000F082
:1017900072F900BF000000924FEA0001FFF7ECBEB3
:1017A0004FF000414FF00000A1F50021704700000C
:1017B0004FF47F0C1CEAD0121EBF1CEAD11392EA30
:1017C0000C0F93EA0C0F00F0858090EA010F48BFE0
:1017D00042F4807240F4000C41F400002CF07F4190
:1017E00020F07F4000B58142A2EB03020FF2081CFB
:1017F000ACEB504EC0F100009EF800E04FEA4E0EF8
:1018000000FB0EFC38BF49004FEA2C1C02F5FA021F
:101810000CFB0EF34FEACE1E4FEA112C4FEAC1210A
:101820000EEB635E42EB22420EFB0CFC4FEA1C53B4
:1018300000FB03114FEA112C4FEA01310EFB0CFCA7
:101840004FEADC4C00FB0C11C14228BF09184CEBDD
:1018500003335DF804EB10EB410143EBC250B2F5EA
:101860007C0F38BF704729D512F0F00F1CBF00F174
:10187000C04000F0004070470081828384858687E5
:1018800088898B8C8D8E8F919293959697999A9C3F
:101890009D9FA0A2A3A5A7A8AAACAEB0B2B3B5B7AE
:1018A000B9BCBEC0C2C5C7C9CCCED1D4D7D9DCDF84
:1018B000E2E6E9ECF0F3F7FAFE0000004FEA400C34
:1018C0000CF1807CBCF17E4F28BF7047B0F1C04066
:1018D00000F017B990EA010F0CEAD11348BF42F4A7
:1018E0008072624538BF634507D213F47F0F16D06C
:1018F00080EA010000F00040704710B500F0BBF82E
:10190000097EFC3E00F005B880EA010000F00040CE
:10191000704780EA010000F0004000F0F2B812F4D5
:101920007F0F04BF0248704780EA010000F0E9B869
:101930000000C07FC10DD1F19E0206DB4FEA0023FB
:1019400043F0004323FA02F07047004207D54FEA04
:101950004001B1F1FE4F02D24FF00000704710B5C8
:1019600000F089F849922480002070476FEA200037
:10197000704700004FF47F0C1CEAD0121EBF1CEA17
:10198000D11392EA0C0F93EA0C0F00F0478090EA13
:10199000010F48BF42F480724FF0004C4CEA002027
:1019A0004CEA012102EB0302A0FB0113A2F50002A5
:1019B000002918BF43F001035B0028BF4FEA33033F
:1019C00042EB22425FEA132C4CEBC2502EBFBCEB21
:1019D000436FB2F57C0F70474FEA036CBCF1004FC8
:1019E00008BF20F00100B2F57C0F38BF70470BD55F
:1019F00082F0FF0212F5803FC8BF704700F1C0407F
:101A0000D8BF00F00040704700F5000C5FEA4C0CB6
:101A100048BF7047B0F1C04000F073B890EA010FC2
:101A20000CEAD11348BF42F48072624538BF634567
:101A300004D280EA010000F00040704710B500F0C9
:101A40001AF800BF8900013E00F007B800F009B89D
:101A50005FEA410C5FEA1C6C08D080EA010000F0EC
:101A600050B85FEA400C5FEA1C6CF6D14FF00040C2
:101A7000A0F5800070470EF1020E2EF0030E5EF806
:101A8000044B244204D44FEA4102B2F17F4F11D8F3
:101A90004FEA4003B3F17F4F0CD80ED14FEAD07C10
:101AA000B2F17F4F0CEB4C0C0CF1020C08BF4CEB6D
:101AB000D17C04E04FF0080C01E04FEAD17C0CEB44
:101AC0004C0324FA03F404F00704B4F1040C06D226
:101AD0000EEB840CBDE810404CF0010C6047DFE8D1
:101AE0000CF0070802024FF00040A0F5800010BD86
:101AF0000846420018BFD2F1807288BF00F0004053
:101B000010BDFF2141EAD050C00570470000000021
:101B10000000000001020304060708093C1B00083E
:101B20000000002010000000280100084C1B0008E5
:101B300010000020A8060000440100080100000079
:0C1B400010000000000000000024F40071
:04000005080000ED02
:00000001FF
